:100000000C9434000C9449000C9449000C94490061
:100010000C9449000C9449000C9449000C9449003C
:100020000C9449000C9449000C9449000C9449002C
:100030000C9449000C9449000C9449000C9449001C
:100040000C9449000C9449000C9449000C9449000C
:100050000C9449000C9449000C9449000C944900FC
:100060000C9449000C94490011241FBECFEFD8E036
:10007000DEBFCDBF12E0A0E0B1E0EAE9F4E002C0EB
:1000800005900D92A237B107D9F70E9432010C9466
:100090004B020C94000027E030E090E0299845E303
:1000A0004A95F1F70000AC01022E02C05595479524
:1000B0000A94E2F740FF02C0289A01C02898299AC2
:1000C00045E34A95F1F700002150310938F72998A6
:1000D0000895CF93C82F2A9880E40E944B008C2F5C
:1000E00087700E944B002A9ACF9108952A9880E247
:1000F0000E944B0080E00E944B002A9A0895909342
:10010000C5008093C400E1ECF0E0808188618083C9
:1001100086E08093C2000895E0ECF0E0908195FFC6
:10012000FDCF8093C6000895E0ECF0E08081882345
:10013000ECF78091C60008951F93CF93DF93EC01F5
:10014000162F8881882331F021960E948C00899196
:100150008111FBCF112319F08AE00E948C00DF91FE
:10016000CF911F9108951F93CF93DF9300D000D0BC
:1001700000D0CDB7DEB7162F4AE0BE016F5F7F4FCC
:100180000E940E02612FCE0101960E949C0080E029
:1001900090E026960FB6F894DEBF0FBECDBFDF917C
:1001A000CF911F9108958091C000882344F4A6EC5C
:1001B000B0E0E0ECF0E08C9180818823E4F30895D6
:1001C000CF92DF92FF920F931F93CF93DF9300D0D4
:1001D00000D000D0CDB7DEB7F82E89838A838B8319
:1001E0008C838D831E828E010F5F1F4F6E0187E00F
:1001F000C80ED11C0E949400F80181938F01F8125F
:1002000002C0FE821DC080538A3050F06F2D80E105
:1002100091E00E949C000E94D3008FEF9FEF14C0DA
:10022000EC15FD0539F78E81F81651F06F2D8DE133
:1002300091E00E949C000E94D3008FEF9FEF04C0CA
:10024000CE0101960E94F00126960FB6F894DEBF0B
:100250000FBECDBFDF91CF911F910F91FF90DF9027
:10026000CF900895CF93DF93CDB7DEB760970FB6E9
:10027000F894DEBF0FBECDBF80E1E0E0F1E0DE012B
:10028000119601900D928A95E1F787E690E00E9421
:100290007F006AE08DE291E00E949C0087E084B9D3
:1002A00084E085B9B12C6E0121E1C20ED11CAA24D3
:1002B000A3948AE00E94E0007C018FEFE816F80624
:1002C00031F46AE080E591E00E949C00F2CF8E015B
:1002D0000F5F1F4FF801808190E0E816F90621F4C6
:1002E00081810E946900BA2C0E5F1F4FC016D10693
:1002F00089F7E114F10409F448C0F1E0BF1609F4EC
:100300005BC060E086E591E00E949C006AE0C70166
:100310000E94B3006AE08DE691E00E949C006AE0D2
:1003200087E991E00E949C006AE089EB91E00E94DD
:100330009C006AE088EC91E00E949C006AE087EDF6
:1003400091E00E949C006AE086EE91E00E949C0091
:100350006AE085EF91E00E949C006AE084E092E010
:100360000E949C006AE085E192E00E949C006AE0A5
:1003700086E292E00E949C009CCF6AE087E392E0D4
:100380000E949C000E94760094CF21E0B212F5CF2B
:1003900060E08EE592E00E949C006AE0C7010E9446
:1003A000B3008FEF99E6E8E181509040E040E1F73B
:1003B00000C00000B12CE1CF60E08EE592E00E9429
:1003C0009C006AE0C7010E94B300FFEF29E688E1C4
:1003D000F15020408040E1F700C00000B12C69CF0F
:1003E000FC0188279927E89421912032E9F32930EC
:1003F00010F02E30C8F32B3241F02D3239F46894CE
:1004000004C00E941902820F911D219120532A30AD
:10041000C0F31EF4909581959F4F0895BB274A30F5
:1004200031F4992322F4BDE2909581959F4F0C946D
:1004300022027AE0979F902D879F802D910D1124A5
:100440000895BB27FB015527AA27880F991FAA1FCC
:10045000A41710F0A41B83955051B9F7A05DAA33DF
:1004600008F0A95DA193009779F7B111B1931192AA
:10047000CB010C943B02DC01FC01672F71917723C7
:10048000E1F7329704C07C916D9370836291AE174F
:0A049000BF07C8F30895F894FFCFEA
:10049A00010002010402050308040A0510062007E8
:1004AA00496E76616C696420646174610053747288
:1004BA00696E6720746F6F206C6F6E670053657288
:1004CA0069616C2070726F6772616D6D61626C65D3
:1004DA00206761696E20616D706C6966696572007A
:1004EA004572726F7200556E61626C652073657435
:1004FA002061206761696E206F663A2000596F7526
:10050A00206D75737420656E746572206F6E652038
:10051A006F662074686520666F6C6C6F77696E67AA
:10052A002076616C75650030203D20456E746572D9
:10053A0020696E206869676820696D706564616EFC
:10054A0063652073746174650031203D20476169D9
:10055A006E206F66202B310032203D204761696E84
:10056A00206F66202B320034203D204761696E20BF
:10057A006F66202B340035203D204761696E206F5D
:10058A0066202B350038203D204761696E206F6652
:10059A00202B38003130203D204761696E206F667C
:1005AA00202B3130003136203D204761696E206FA3
:1005BA0066202B3136003332203D204761696E2098
:1005CA006F66202B333200456E74657220696E2087
:1005DA006869676820696D706564616E6365207318
:1005EA00746174652C206E6F206761696E00596FA3
:1005FA0075207365742061206761696E206F663AA1
:02060A002000CE
:00000001FF
